{
  "contractName": "TokenizedAsset",
  "abi": [
    {
      "inputs": [
        {
          "internalType": "uint256",
          "name": "_initialSupply",
          "type": "uint256"
        }
      ],
      "stateMutability": "nonpayable",
      "type": "constructor"
    },
    {
      "anonymous": false,
      "inputs": [
        {
          "indexed": true,
          "internalType": "address",
          "name": "from",
          "type": "address"
        },
        {
          "indexed": true,
          "internalType": "address",
          "name": "to",
          "type": "address"
        },
        {
          "indexed": false,
          "internalType": "uint256",
          "name": "value",
          "type": "uint256"
        }
      ],
      "name": "Transfer",
      "type": "event"
    },
    {
      "inputs": [
        {
          "internalType": "address",
          "name": "",
          "type": "address"
        }
      ],
      "name": "balances",
      "outputs": [
        {
          "internalType": "uint256",
          "name": "",
          "type": "uint256"
        }
      ],
      "stateMutability": "view",
      "type": "function",
      "constant": true
    },
    {
      "inputs": [],
      "name": "name",
      "outputs": [
        {
          "internalType": "string",
          "name": "",
          "type": "string"
        }
      ],
      "stateMutability": "view",
      "type": "function",
      "constant": true
    },
    {
      "inputs": [],
      "name": "owner",
      "outputs": [
        {
          "internalType": "address",
          "name": "",
          "type": "address"
        }
      ],
      "stateMutability": "view",
      "type": "function",
      "constant": true
    },
    {
      "inputs": [],
      "name": "symbol",
      "outputs": [
        {
          "internalType": "string",
          "name": "",
          "type": "string"
        }
      ],
      "stateMutability": "view",
      "type": "function",
      "constant": true
    },
    {
      "inputs": [],
      "name": "totalSupply",
      "outputs": [
        {
          "internalType": "uint256",
          "name": "",
          "type": "uint256"
        }
      ],
      "stateMutability": "view",
      "type": "function",
      "constant": true
    },
    {
      "inputs": [
        {
          "internalType": "address",
          "name": "account",
          "type": "address"
        }
      ],
      "name": "balanceOf",
      "outputs": [
        {
          "internalType": "uint256",
          "name": "",
          "type": "uint256"
        }
      ],
      "stateMutability": "view",
      "type": "function",
      "constant": true
    },
    {
      "inputs": [
        {
          "internalType": "address",
          "name": "to",
          "type": "address"
        },
        {
          "internalType": "uint256",
          "name": "amount",
          "type": "uint256"
        }
      ],
      "name": "transfer",
      "outputs": [
        {
          "internalType": "bool",
          "name": "",
          "type": "bool"
        }
      ],
      "stateMutability": "nonpayable",
      "type": "function"
    }
  ],
  "bytecode": "0x60806040526040518060400160405280600f81526020017f546f6b656e697a656420417373657400000000000000000000000000000000008152506000908051906020019062000051929190620001ce565b506040518060400160405280600381526020017f544b410000000000000000000000000000000000000000000000000000000000815250600190805190602001906200009f929190620001ce565b50348015620000ad57600080fd5b5060405162000d8538038062000d858339818101604052810190620000d3919062000295565b6000811162000119576040517f08c379a0000000000000000000000000000000000000000000000000000000008152600401620001109062000329565b60405180910390fd5b33600360006101000a81548173ffffffffffffffffffffffffffffffffffffffff021916908373ffffffffffffffffffffffffffffffffffffffff160217905550806002819055508060046000600360009054906101000a900473ffffffffffffffffffffffffffffffffffffffff1673ffffffffffffffffffffffffffffffffffffffff1673ffffffffffffffffffffffffffffffffffffffff1681526020019081526020016000208190555050620003e5565b828054620001dc9062000366565b90600052602060002090601f0160209004810192826200020057600085556200024c565b82601f106200021b57805160ff19168380011785556200024c565b828001600101855582156200024c579182015b828111156200024b5782518255916020019190600101906200022e565b5b5090506200025b91906200025f565b5090565b5b808211156200027a57600081600090555060010162000260565b5090565b6000815190506200028f81620003cb565b92915050565b600060208284031215620002a857600080fd5b6000620002b8848285016200027e565b91505092915050565b6000620002d06025836200034b565b91507f496e697469616c20737570706c79206d7573742062652067726561746572207460008301527f68616e20300000000000000000000000000000000000000000000000000000006020830152604082019050919050565b600060208201905081810360008301526200034481620002c1565b9050919050565b600082825260208201905092915050565b6000819050919050565b600060028204905060018216806200037f57607f821691505b602082108114156200039657620003956200039c565b5b50919050565b7f4e487b7100000000000000000000000000000000000000000000000000000000600052602260045260246000fd5b620003d6816200035c565b8114620003e257600080fd5b50565b61099080620003f56000396000f3fe608060405234801561001057600080fd5b506004361061007d5760003560e01c806370a082311161005b57806370a08231146100ee5780638da5cb5b1461011e57806395d89b411461013c578063a9059cbb1461015a5761007d565b806306fdde031461008257806318160ddd146100a057806327e235e3146100be575b600080fd5b61008a61018a565b60405161009791906106ed565b60405180910390f35b6100a8610218565b6040516100b5919061074f565b60405180910390f35b6100d860048036038101906100d3919061056c565b61021e565b6040516100e5919061074f565b60405180910390f35b6101086004803603810190610103919061056c565b610236565b604051610115919061074f565b60405180910390f35b61012661027f565b60405161013391906106b7565b60405180910390f35b6101446102a5565b60405161015191906106ed565b60405180910390f35b610174600480360381019061016f9190610595565b610333565b60405161018191906106d2565b60405180910390f35b600080546101979061088b565b80601f01602080910402602001604051908101604052809291908181526020018280546101c39061088b565b80156102105780601f106101e557610100808354040283529160200191610210565b820191906000526020600020905b8154815290600101906020018083116101f357829003601f168201915b505050505081565b60025481565b60046020528060005260406000206000915090505481565b6000600460008373ffffffffffffffffffffffffffffffffffffffff1673ffffffffffffffffffffffffffffffffffffffff168152602001908152602001600020549050919050565b600360009054906101000a900473ffffffffffffffffffffffffffffffffffffffff1681565b600180546102b29061088b565b80601f01602080910402602001604051908101604052809291908181526020018280546102de9061088b565b801561032b5780601f106103005761010080835404028352916020019161032b565b820191906000526020600020905b81548152906001019060200180831161030e57829003601f168201915b505050505081565b600081600460003373ffffffffffffffffffffffffffffffffffffffff1673ffffffffffffffffffffffffffffffffffffffff1681526020019081526020016000205410156103b7576040517f08c379a00000000000000000000000000000000000000000000000000000000081526004016103ae9061072f565b60405180910390fd5b600073ffffffffffffffffffffffffffffffffffffffff168373ffffffffffffffffffffffffffffffffffffffff161415610427576040517f08c379a000000000000000000000000000000000000000000000000000000000815260040161041e9061070f565b60405180910390fd5b81600460003373ffffffffffffffffffffffffffffffffffffffff1673ffffffffffffffffffffffffffffffffffffffff168152602001908152602001600020600082825461047691906107dc565b9250508190555081600460008573ffffffffffffffffffffffffffffffffffffffff1673ffffffffffffffffffffffffffffffffffffffff16815260200190815260200160002060008282546104cc9190610786565b925050819055508273ffffffffffffffffffffffffffffffffffffffff163373ffffffffffffffffffffffffffffffffffffffff167fddf252ad1be2c89b69c2b068fc378daa952ba7f163c4a11628f55a4df523b3ef84604051610530919061074f565b60405180910390a36001905092915050565b6000813590506105518161092c565b92915050565b60008135905061056681610943565b92915050565b60006020828403121561057e57600080fd5b600061058c84828501610542565b91505092915050565b600080604083850312156105a857600080fd5b60006105b685828601610542565b92505060206105c785828601610557565b9150509250929050565b6105da81610810565b82525050565b6105e981610822565b82525050565b60006105fa8261076a565b6106048185610775565b9350610614818560208601610858565b61061d8161091b565b840191505092915050565b6000610635600f83610775565b91507f496e76616c6964206164647265737300000000000000000000000000000000006000830152602082019050919050565b6000610675601483610775565b91507f496e73756666696369656e742062616c616e63650000000000000000000000006000830152602082019050919050565b6106b18161084e565b82525050565b60006020820190506106cc60008301846105d1565b92915050565b60006020820190506106e760008301846105e0565b92915050565b6000602082019050818103600083015261070781846105ef565b905092915050565b6000602082019050818103600083015261072881610628565b9050919050565b6000602082019050818103600083015261074881610668565b9050919050565b600060208201905061076460008301846106a8565b92915050565b600081519050919050565b600082825260208201905092915050565b60006107918261084e565b915061079c8361084e565b9250827fffffffffffffffffffffffffffffffffffffffffffffffffffffffffffffffff038211156107d1576107d06108bd565b5b828201905092915050565b60006107e78261084e565b91506107f28361084e565b925082821015610805576108046108bd565b5b828203905092915050565b600061081b8261082e565b9050919050565b60008115159050919050565b600073ffffffffffffffffffffffffffffffffffffffff82169050919050565b6000819050919050565b60005b8381101561087657808201518184015260208101905061085b565b83811115610885576000848401525b50505050565b600060028204905060018216806108a357607f821691505b602082108114156108b7576108b66108ec565b5b50919050565b7f4e487b7100000000000000000000000000000000000000000000000000000000600052601160045260246000fd5b7f4e487b7100000000000000000000000000000000000000000000000000000000600052602260045260246000fd5b6000601f19601f8301169050919050565b61093581610810565b811461094057600080fd5b50565b61094c8161084e565b811461095757600080fd5b5056fea2646970667358221220362cf437fc106b8e4b53a5de7e7d073a06958777dc77ded98bd0d4fb31f71a5864736f6c63430008000033",
  "immutableReferences": {},
  "source": "// contracts/TokenizedAsset.sol\n// SPDX-License-Identifier: MIT\npragma solidity ^0.8.0;\n\ncontract TokenizedAsset {\n    string public name = \"Tokenized Asset\";\n    string public symbol = \"TKA\";\n    uint256 public totalSupply;\n    address public owner;\n\n    mapping(address => uint256) public balances;\n\n    event Transfer(address indexed from, address indexed to, uint256 value);\n\n    constructor(uint256 _initialSupply) {\n        require(_initialSupply > 0, \"Initial supply must be greater than 0\");\n        owner = msg.sender;\n        totalSupply = _initialSupply;\n        balances[owner] = _initialSupply;\n    }\n\n    function balanceOf(address account) public view returns (uint256) {\n        return balances[account];\n    }\n\n    function transfer(address to, uint256 amount) public returns (bool) {\n        require(balances[msg.sender] >= amount, \"Insufficient balance\");\n        require(to != address(0), \"Invalid address\");\n\n        balances[msg.sender] -= amount;\n        balances[to] += amount;\n        emit Transfer(msg.sender, to, amount);\n        return true;\n    }\n}\n",
  "sourcePath": "/Users/aditiverma/TokenizedAssetProject/contracts/TokenizedAsset.sol",
  "compiler": {
    "name": "solc",
    "version": "0.8.0+commit.c7dfd78e.Emscripten.clang"
  },
  "schemaVersion": "3.4.16",
  "updatedAt": "2024-11-17T15:43:24.200Z",
  "networkType": "ethereum",
  "devdoc": {
    "kind": "dev",
    "methods": {},
    "version": 1
  },
  "userdoc": {
    "kind": "user",
    "methods": {},
    "version": 1
  }
}